:0C0000000C944C000C9400000C940000C8
:10000C000C9400000C9400000C9400000C94000064
:10001C000C9400000C9400000C9400000C94000054
:10002C000C9400000C9400000C9400000C94000044
:10003C000C9400000C9400000C9400000C94000034
:10004C000C9400000C940000000000004449535430
:10005C00414E43453A2028636D29004543484F5F84
:10006C004552524F520001002D4E414E00494E4612
:10007C0000000F00600258000B006F0267000400C4
:10008C00080054000100E50272000000F894EE270D
:10009C00ECBBF1E0F5BFE5BFF8E1F1BDE1BD8DE0F2
:1000AC00A2E0BB27ED938A95E9F780E098E0A0E603
:1000BC00ED930197E9F7EEE7F0E0859195910097C4
:1000CC0061F0A591B59105901590BF01F0010590D7
:1000DC000D920197E1F7FB01F0CFEFE5EDBFE8E002
:1000EC00EEBFC0E6D2E00C947B0000E010E0E0E054
:1000FC00EBBBEFEFEABBE2BBE0EFE1BBE0E0E8BB60
:10010C00E7BBE5BBEFEFE4BB12D2C1D10DD1E0E60A
:10011C00F2E0FA93EA9338D1E0E0F0E0FDBDECBDFB
:10012C00959A0E945F049598E1E0EA9308D1829B2E
:10013C00FECFE2E0EA9303D1E2E0EEBD829B10C079
:10014C000130E7E81E0758F0EFE6F2E0FA93EA9385
:10015C001BD1E2E0F0E0FA93EA930E94F204EECFB6
:10016C00E0E0EEBD0CB51DB5E3E0EA93E8D0F80194
:10017C00662777270E948B05DF01CB01ECE7F2EFB6
:10018C0060EB7FE30E9463060E9452052F01F3018E
:10019C00AAE7B2E0EE0FFF1FEA0FFB1FBF01D2016F
:1001AC00EAE3F0E00E940F07DB01ED93FC93662479
:1001BC007724EEE1F0E06E167F0678F4F301AAE7FF
:1001CC00B2E0EE0FFF1FAE0FBF1F0E9470078E0E26
:1001DC009F1EF30131963F01ECCFD401EEE1F0E02C
:1001EC000E940F076F010E946504DA92CA92E2D056
:1001FC006CD10130E7E81E0720F00F30E0E01E075D
:10020C0008F004C0E1E0E093E402F3CFA091E40233
:10021C00A130C9F40E945F04F301EA53FD4FFF9330
:10022C00EF93E0E0EA9374D0662777270E948B0562
:10023C00AF91BF910E945205EC93E4E6F0E0FA9383
:10024C00EA930E94F204E0E0E093E402662477244F
:10025C00EEE1F0E06E167F0670F4A6ECB2E0A60DAF
:10026C00B71DEC91F0E0AE0EBF1E0E946B04F301C3
:10027C0031963F01EDCFD501EEE1F0E00E940F0782
:10028C0066277727E093B802F093B9026093BA021D
:10029C007093BB02A5E0B0E080E090E00E94EA061B
:1002AC00DF01CB01E0E0F4E060E070E00E94470782
:1002BC00ACEBB2E00E948B050E947407E091BC028B
:1002CC00F091BD026091BE027091BF020E94830743
:1002DC00EDECFCEC6CE87FEB0E9483070E941504AC
:1002EC00A0E0B0E082E892E40E941506A6EBB2E032
:1002FC000E945205ED93FC93FFD00E946504E0919F
:10030C00B602F091B702FA93EA9354D005CFFFCF1F
:10031C00E881E7B985E28A95F1F7369A349BFECFEE
:10032C00349AE4B1F5B1B1C0E0E0EBB9E8E1EAB977
:10033C00E6E0E0BDE0E0E0BDE7E4E9B908955D9BEF
:10034C00FECFE881ECB9A1C0E881F0E0EC30A0E090
:10035C00FA0731F40E946B0487E08A95F1F713C019
:10036C00EA30A0E0FA0721F4E0ECEA937FD00BC06E
:10037C00E830A0E0FA0721F4E0E1EA9377D003C07B
:10038C00E881EA9376D081C01A930A9300E010E0DA
:10039C000E946F04E03051F088EB8A95F1F70E94CF
:1003AC006F04EA93D1DF0F5F1F4FF2CF19810881E1
:1003BC000C94F0020E94A407AC81BD81E8EEF3E03E
:1003CC000E940F071E2FE12F0E947604A12FB0E090
:1003DC00E8EEF3E00E940A07AC81BD81AE1BBF0BB7
:1003EC00E4E6F0E00E940F070E2FE02F0E94760447
:1003FC00AC81BD81E4E6F0E00E944C07DF01EAE04D
:10040C00F0E00E940F073E2FE32F0E947604AC8190
:10041C00BD81EAE0F0E00E944C072E2FE22F0E94F3
:10042C0076040E94A90726960895C29AE8B3EF7045
:10043C00AE2FE881E295E07FEA2BE8BBC29825C09D
:10044C001A930A93E8B3E06FE8BBC098C19A0E9474
:10045C007A0416B30E9481040E947A0406B30E94A7
:10046C00810417FDF4CF099119910895E9DFC09823
:10047C0002C0E6DFC09AC198E881F0E00E94D40681
:10048C00EA93D3DFE881EA93D0DF21960895C098F0
:10049C00C198E2E0EA93C9DFE8E2EA93E7DFECE037
:1004AC00EA93E4DF0E946B040895A981A83258F402
:1004BC00E881E03019F0E981E064E983E981E068E2
:1004CC00E983EA93D3DF229608950E948804F6010B
:1004DC00E070EF2FF0E0E093C002EC2D0E948F044F
:1004EC00E4E0F0E06E167F0630F40E949C04F30109
:1004FC0031963F01F5CF08950E948804E091B60231
:10050C00F091B702E070EF2FF0E0E093C002E091C1
:10051C00B6020E948F04E4E0F0E06E167F0630F421
:10052C000E949C04F30131963F01F5CF0895E0E061
:10053C00EFBDEEBDE0E0F0E0FDBDECBDE7BDE6BD1E
:10054C00EBBDEABDE9BDE8BDE9BFE0E8E8B9E0E034
:10055C00E0BF08957B816A81F981E88177FB770F91
:10056C0067FD7160972F9E5781F078F0983190F469
:10057C00AA27BB27882708948795B795A7959A959E
:10058C00D1F7EA23FB23682305C0E8947727EE27ED
:10059C00FF2766276F77769508F4606877F9A9913D
:1005AC00B99189919991EA17FB076807790797FB2D
:1005BC0008950E94A4040E9483070E94B0020E9426
:1005CC007E0719F40E94A40405C0E6F70E94A40457
:1005DC000E94A7042496089524971A930A930E94C4
:1005EC00AE040E9499072CF0EFEFFFEF6FE77FEF5F
:1005FC0077C00E94B3040E948307EDB7FEB7319712
:10060C00FA93EA931F930F930E94FE040F911F918C
:10061C000E94B8040E94AE04E3EFF4E065E37FE3CC
:10062C000E94A80640F40E94BD040E94C5050E94C9
:10063C00B804015010400E94B3040E94A7047F9399
:10064C006F93FF93EF930E94B304A0E0B0E080E8B7
:10065C009FE30E94C505AF91BF918F919F910E941E
:10066C0063060E94B8040E94BD040E94BF04A6E267
:10067C00B2E485E69FE30E941506DF01CB01EEE4B0
:10068C00F1E164E570E40E94C6040E94AE040E948D
:10069C0015067F936F93FF93EF930E94CB04ADE409
:1006AC00B1E184ED9FE30E94BE05AF91BF918F91A4
:1006BC009F910E9463067F936F93FF93EF93F801D2
:1006CC000E94DD060E948B05A8E1B2E781E39FE35F
:1006DC000E941506AF91BF918F919F910E94C50505
:1006EC00198108812A96089528971A930A930E94D3
:1006FC00D004E0E5FCEA6EEA72EC0E94A80618F45D
:10070C000E94D50488C0EA85FB856C857D850E9496
:10071C00950729F4E0E0F0E060E87FE37CC00E94FC
:10072C00D004E8E1F2E761EB72E40E94A80609F05C
:10073C0010F40C94A603EFEFFFEF6FE77FE76BC0AD
:10074C000E94D004EBE3FAEA68EB7FE30E94150603
:10075C00EA87FB876C877D870E9483072ADF0E94CC
:10076C0054058F01F8010E94D0040E94DD060E94FE
:10077C008B050E94C604DF01CB01E0E0F0E060E0F5
:10078C007FE30E94C6040E94B8040E94BD040E942C
:10079C00BF04ADE6BCE48CE69DE30E941506A6EA18
:1007AC00B3EE86EE90E40E94C5050E94AE040E9452
:1007BC0015060E94B8040E94CB04A8E2BDE886EAA4
:1007CC0091E40E94C505EA83FB836C837D830E94C0
:1007DC00B304AA81BB818C819D810E94C505A3EFC6
:1007EC00B4E085EB9FE30E9415067F936F93FF9314
:1007FC00EF930E94AE040E94CB040E94BE05AF9101
:10080C00BF918F919F910E9463060E9483071A9358
:10081C000A930E941105198108812E960895249738
:10082C000E94DA040E94950719F40E94D5043FC077
:10083C00A885B9858A859B850E9499077CF40E94BE
:10084C00DF040E94950729F4E0E0F0E060E87FE324
:10085C002EC00E94DA040E94E40429C00E94DF0426
:10086C00DE010E9454050E9474070E94A4040E9499
:10087C008B05DF01CB010E94DF040E949F0719F05A
:10088C000E94D50414C00E94DA040E941F050E9425
:10089C00E404E887F9876A877B87E881E17019F4BB
:1008AC000E94DA0404C00E94DA040E941F052C96F0
:1008BC000895EAE0F0E0FA93EA930C94F204E8E08D
:1008CC00EA93E1E0EA930C945B02E1E0EA930C9486
:1008DC003C02F801AA81BB81AE0FBF1FEC910895B9
:1008EC00E05DEA930C943F02C29A87E08A95F1F797
:1008FC00EFE0E7BB0895EFEFE7BBC29887E08A957E
:10090C00F1F70895E5E5E093C202EAEAE093C30249
:10091C000895E093C102E091C002E093C402E0911B
:10092C00C102E093C502662477240895A2ECB2E0DC
:10093C00A60DB71DEC91EA930C94A5010E947907C2
:10094C000895A0E0B0E080E89FE30E94BE05089502
:10095C00AE81BF81888599850895EE81FF81688578
:10096C0079850895EE83FF83688779870895F5DF8D
:10097C00EFCF0E941506EA83FB836C837D83089579
:10098C000E9488070E94BE050895EA81FB816C8154
:10099C007D810895AA85BB858C859D850895E0E0B1
:1009AC00F0E060E070E00895E885F9856A857B8564
:1009BC000895EC81FD816E817F8108950E948307EB
:1009CC000E94F202AC81BD818E819F810E9415062E
:1009DC000E9483070C947A03E991F991309639F0CF
:1009EC008DEC9AE00197F1F7A8953197C9F7089526
:1009FC00A991B991E991F9916991799177FB660F78
:100A0C00771F88277E57880B7D938C937EE776958E
:100A1C0067957EF00895A991B991E991F991699141
:100A2C00799177FB660F771F7A0F769567950EF0A5
:100A3C00089530976040704009F070580895552320
:100A4C0042F4503811F4E0FF04C03196691F791F4D
:100A5C006BF050E8572711F45F93CFC05F3F31F034
:100A6C00660F000C57956795752F08955F930020BE
:100A7C000AF0CFC0C8C050E8192E1522880F991F54
:100A8C009527550F879550E8072E0522660F771F7F
:100A9C007527550F67950895689401C0E8945F9386
:100AAC00F2DF703818F07F3F08F4A7C056E1571BEF
:100ABC00AAF4519558300EF4593030F0EFEFFFEFA7
:100ACC006FEF7FE777F91AC077275523B9F0EE0F50
:100ADC00FF1F661F771F5A95D1F710C07727583024
:100AEC0028F0EF2FF62F672F5850F9CF552331F000
:100AFC0076956795F795E7955A95D1F700200AF406
:100B0C0045D15F910895689401C0E8943097604096
:100B1C007040B1F0002426F0772312F4009436D103
:100B2C00172E7EE1112032F07A95EE0FFF1F661F13
:100B3C00111CF9CFEF2FF62F612D5F938ADF5F9198
:100B4C0008954F93AF01FD01DA01AB01BC01CA015D
:100B5C00402D012C142E4F910895EA0FFB1F681F96
:100B6C000895E095F0956095EF5FFF4F6F4F0895F6
:100B7C005F9381DF903871F150E8152604C05F93C4
:100B8C007ADF903839F1703821F1572F591B2BF13E
:100B9C0012F4D7DFFACF583118F0AA27BB278827D1
:100BAC00583028F0AB2FB82F88275850F9CF552341
:100BBC0029F08695B795A7955A95D9F7502D5125BB
:100BCC0072F0CBDF38F46795F795E795739513F4CE
:100BDC0020C0B7DF3EDF5F910895D8F7FBCFEA1B4B
:100BEC00FB0B680B51F010F40094BBDF662392F3FF
:100BFC00EE0FFF1F661F7A95CBF7EE27FF276627B0
:100C0C0077275F910895EFEFFFEF6FE77FEF5F912D
:100C1C000895EFEFFFEF6FE77FE75F9108955F9324
:100C2C002ADF703851F3903841F301240894791F6E
:100C3C0023F41CF300203AF3ECCF0F921F932F9365
:100C4C003F934F93112722279927689FA0018F9FCD
:100C5C00302D410D591F6B9F300D411D591F8E9F1B
:100C6C0027D0BF9F25D06A9F23D0BE9F1DD0AF9F9A
:100C7C001BD0AE9F110D291F391F491F591FE32F80
:100C8C00F42F652F522F4F913F912F911F910F9061
:100C9C0066232AF0550FEE1FFF1F661F02C07395C7
:100CAC004BF2CDDE5F910895100D211D391F02C04E
:100CBC00200D311D491F591F08955F93DCDE7038DC
:100CCC0021F411200AF49FCFA4CF903809F495CFCA
:100CDC0001240894970B1BF4D4F30020F3CF792F45
:100CEC001F932F933F934F931124112722273327C0
:100CFC004427552790E2AE17BF078607410730F00F
:100D0C00AE1BBF0B860B410B089401C08894551F7A
:100D1C00221F331F111CAA1FBB1F881F441F9A952B
:100D2C0051F7F901612D4F913F912F911F9166233E
:100D3C0032F0550FEE1FFF1F661F7A9543F27FDED0
:100D4C005F91089599239AF0772342F0971748F012
:100D5C0029F4AE17BF07860720F031F098948894D9
:100D6C000895989408940895189488940895772376
:100D7C00C2F7971798F3A9F7EA17FB07680788F3E8
:100D8C0099F3ECCFF195E195F0400895F0956095CD
:100D9C007095E195FF4F6F4F7F4F0895F595E7954F
:100DAC00F595E795F595E795F595E79508956F2FEA
:100DBC00660F660B762F0895FA9FF02DEB9FF00DC2
:100DCC00EA9FE02DF10D08957A9F702D6B9F700DA9
:100DDC00F89F700DE99F700D6A9F602D710DFB9F40
:100DEC00600D711DE89F600D711D8827FA9FF02D15
:100DFC00610D781FEB9FF00D611D781FEA9FE02DB0
:100E0C00F10D681F781F089544D0D6DF0EF4BADFB9
:100E1C0008950024112490E1AA0FBB1F001C111C83
:100E2C000E1A1F0A18F40E0E1F1E01C0A1609A950F
:100E3C0099F7FD01D00108953F934F935F930024E0
:100E4C0011244427552730E2AA0FBB1F881F991F76
:100E5C00001C111C441F551F0E1A1F0A460B570B62
:100E6C0028F40E0E1F1E461F571F01C0A1603A9595
:100E7C0059F7FD01BC01D001CA015F914F913F911F
:100E8C00089515D0D9DF0EF481DF0895C2DFFD017E
:100E9C000895E894F7FF02C075DF6894B7FF06C0A9
:100EAC00A095B095119600F8039400FA0895E89473
:100EBC0077FF02C06BDF689497FF0BC00024A095EE
:100ECC00B095809590951196801D901D00F8039417
:100EDC0000FA0895ED91FC9111970895ED93FD930F
:100EEC006D937C930895E881F9816A817B810895E3
:100EFC00E883F9836A837B8308957A936A93FA93E0
:100F0C00EA930895182E862F612D192E972F712D87
:100F1C001B2EBF2FF12D1A2EAE2FE12D08953097D9
:100F2C0060407040089500240A160B060806090656
:100F3C000895EA17FB076807790708953A932A93EF
:100F4C001A930A9308953B812A8119810881089587
:00000001FF
